:100000004CC05AC082C057C09DC055C054C053C0D8
:1000100052C051C050C04FC04EC04DC04CC04BC06C
:100020004AC049C048C024504D544B3331342C3061
:100030002C302C302C312C302C302C302C302C30DF
:100040002C302C302C302C302C302C302C302C30D0
:100050002C302C302A32390A00687474703A2F2FF1
:100060006D69676874796F686D2E636F6D2F676552
:10007000696765720A006D69676874796F686D2ECB
:10008000636F6D2047656967657220436F756E7495
:10009000657220312E30300A000011241FBECFEDD2
:1000A000CDBF10E0A0E6B0E001C01D92A13FB107B6
:1000B000E1F77CD19DC2A4CF1F920F920FB60F9291
:1000C00011242F938F939F938091EB009091EC00DC
:1000D0008F5F9F4F49F08091EB009091EC0001966B
:1000E0009093EC008093EB00969A88EC90E0019757
:1000F000F1F7969881E080936B009F918F912F91FB
:100100000F900FBE0F901F9018951F920F920FB671
:100110000F9211248F939F9380E593EC0197F1F751
:10012000839906C08091AB0091E089278093AB0052
:100130008AB780688ABF9F918F910F900FBE0F90F2
:100140001F9018951F920F920FB60F9211242F93A4
:100150003F935F936F937F938F939F93EF93FF935F
:1001600031E03093EA008091EB009091EC009093A5
:10017000F0008093EF008091ED009091EE00E0910F
:10018000E900F0E0E355FF4F2081821B9109909335
:10019000EE008093ED008091EB009091EC008F3F9A
:1001A000910549F040F08FEF90E09093EC00809340
:1001B000EB003093AA002091ED003091EE00809189
:1001C000EB009091EC00820F931F9093EE008093D0
:1001D000ED00E091E900F0E08091EB009091EC00FF
:1001E000E355FF4F808310926D0010926C0030E059
:1001F000E091E900E31BE7FDE45C80916C009091E5
:100200006D00FF27E7FDF095E355FF4F2081820F3A
:10021000911D90936D0080936C003F5F353041F7E6
:1002200080916C0090916D006CE070E0F1D0909343
:100230006D0080936C008091E9008F5F8093E900EE
:100240008091E9008C3310F01092E9001092EC00DC
:100250001092EB00FF91EF919F918F917F916F91A1
:100260005F913F912F910F900FBE0F901F901895A7
:100270001F93182F8A3011F48DE0FADF5D9BFECFBB
:100280001CB91F910895CF93DF93EC0102C0F0DFFA
:10029000219688818823D9F7DF91CF910895CF9354
:1002A000DF93EC0104C02196F9018491E1DF9E0106
:1002B000FE0184918823B9F7DF91CF910895809151
:1002C0006B008823C1F010926B00C49A8091AB0040
:1002D000882341F480B7806480BF83B7826083BF86
:1002E00080EA86BF80E29EE40197F1F7C49813BECE
:1002F00080B78F7B80BF08958091EA00882309F43E
:1003000054C01092EA008091AA00882399F060916D
:10031000EF007091F00080E090E02CE330E040E0EE
:1003200050E088D09B01AC0182E08093AC00109239
:10033000AA0018C080916C0090916D00895E934076
:1003400040F081E08093AC0080916C0090916D0052
:1003500006C01092AC008091ED009091EE009C01DF
:1003600040E050E0CA01B90129E330E040E050E04C
:1003700061D024E630E040E050E075D0CA01B90118
:1003800024E630E040E050E06ED06A3010F480E3C4
:100390006FDF8EE690E06CE370E040E050E085D0E7
:1003A0008EE690E070DF8AE063DF089512B883E3A1
:1003B00089B988E18AB986E790E071DF89E590E044
:1003C0006EDF86E290E06BDF84E187BB20E421BB37
:1003D000939A85B78A6085BF8BB7806C8BBF82E4A8
:1003E00080BF13BE8CE08EBD82E19AE79BBD8ABDC3
:1003F00029BF789485B78F7A85BF85B7806285BF1E
:10040000889585B78F7D85BF5ADF76DF58DFF2CFBD
:100410005527002480FF02C0060E571F660F771F66
:100420006115710521F096958795009799F7952F9D
:10043000802D0895FF27EE27BB27AA2760FF04C061
:10044000A20FB31FE41FF51F220F331F441F551FB8
:10045000969587957795679589F70097760771F751
:10046000CF01BD010895A1E21A2EAA1BBB1BFD01FD
:100470000DC0AA1FBB1FEE1FFF1FA217B307E40783
:10048000F50720F0A21BB30BE40BF50B661F771FDB
:10049000881F991F1A9469F76095709580959095BB
:1004A0009B01AC01BD01CF010895A0E0B0E0EAE5F9
:1004B000F2E071C07C016A01FA01838180FF18C0FB
:1004C00016161706ACF4EB01219787010CC0C60184
:1004D00016D0FFEF8F3F9F0759F0F80181938F01EE
:1004E0000A9719F02197209791F7F801108202C01E
:1004F000EE24FF24C701CDB7DEB7E8E068C0CF9394
:10050000DF93EC014B8140FF1AC046FF0AC04F7BCE
:100510004B838E819F8101969F838E838A81282FB2
:100520002BC042FF13C0E881F9818081282F332737
:1005300027FD30952115310529F440624B832FEFBB
:100540003FEF1BC03196F983E88311C0EA85FB8534
:10055000CE0109959C0197FF0AC09B812F5F3F4FF9
:1005600011F080E201C080E1892B8B83E8CF8E817E
:100570009F8101969F838E8330E0C901DF91CF91E7
:1005800008952F923F924F925F926F927F928F9237
:100590009F92AF92BF92CF92DF92EF92FF920F9312
:1005A0001F93CF93DF93CDB7DEB7CA1BDB0B0FB61C
:1005B000F894DEBF0FBECDBF09942A8839884888D9
:1005C0005F846E847D848C849B84AA84B984C8846F
:1005D000DF80EE80FD800C811B81AA81B981CE0F66
:1005E000D11D0FB6F894DEBF0FBECDBFED0108954B
:0405F000F894FFCFAD
:00000001FF
