:100000004DC066C08EC063C0A9C061C060C05FC083
:100010005EC05DC05CC05BC05AC059C058C057C00C
:1000200056C055C054C0687474703A2F2F6D6967FC
:100030006874796F686D2E636F6D2F67656967658A
:10004000720A006D69676874796F686D2E636F6DF1
:100050002047656967657220436F756E746572200D
:10006000312E30300A002C204750532C20002C20F9
:10007000534C4F57002C2046415354002C20494EDE
:100080005354002C207553762F68722C20002C209E
:1000900043504D2C20004350532C200011241FBEF0
:1000A000CFEDCDBF10E0A0E6B0E0E2E5F6E002C0A3
:1000B00005900D92A438B107D9F710E0A4E8B0E09C
:1000C00001C01D92A93DB107E1F7EAD1C0C298CFA6
:1000D0001F920F920FB60F9211242F938F939F931D
:1000E0008091D3009091D4008F5F9F4F49F0809111
:1000F000D3009091D40001969093D4008093D300C4
:10010000969A88EC90E00197F1F7969881E08093B9
:100110008F009F918F912F910F900FBE0F901F9086
:1001200018951F920F920FB60F9211248F939F93E1
:1001300080E593EC0197F1F7839906C080919300D5
:1001400091E08927809393008AB780688ABF9F9146
:100150008F910F900FBE0F901F9018951F920F92C6
:100160000FB60F9211242F933F935F936F937F935A
:100170008F939F93EF93FF9331E03093D200809160
:10018000D3009091D4009093D8008093D7008091B1
:10019000D5009091D600E091D100F0E0EB56FF4FF2
:1001A0002081821B91099093D6008093D500809185
:1001B000D3009091D4008F3F910549F040F08FEF2C
:1001C00090E09093D4008093D300309392002091DC
:1001D000D5003091D6008091D3009091D400820F49
:1001E000931F9093D6008093D500E091D100F0E06A
:1001F0008091D3009091D400EB56FF4F80831092F2
:1002000091001092900030E0E091D100E31BE7FDF7
:10021000E45C8091900090919100FF27E7FDF095BC
:10022000EB56FF4F2081820F911D90939100809398
:1002300090003F5F353041F78091900090919100A0
:100240006CE070E05CD1909391008093900080917D
:10025000D1008F5F8093D1008091D1008C3310F05A
:100260001092D1001092D4001092D300FF91EF9120
:100270009F918F917F916F915F913F912F910F90FF
:100280000FBE0F901F9018951F93182F8A3011F4EE
:100290008DE0FADF5D9BFECF1CB91F910895CF93CF
:1002A000DF93EC0102C0F0DF219688818823D9F723
:1002B000DF91CF910895CF93DF93EC0104C0219695
:1002C000F9018491E1DF9E01FE0184918823B9F751
:1002D000DF91CF91089580918F008823C1F0109213
:1002E0008F00C49A80919300882341F480B7806482
:1002F00080BF83B7826083BF80EA86BF80E29EE4CE
:100300000197F1F7C49813BE80B78F7B80BF089523
:10031000EF92FF920F931F93DF93CF93CDB7DEB78A
:1003200064970FB6F894DEBF0FBECDBF8091D200A8
:10033000882309F4A8C01092D200809192008823EB
:1003400099F06091D7007091D80080E090E02CE3A4
:1003500030E040E050E0E5D07B018C0182E080930A
:1003600094001092920018C080919000909191009A
:10037000895E934040F081E08093940080919000EA
:100380009091910006C0109294008091D5009091B8
:10039000D6007C0100E010E086E990E08CDF8091DF
:1003A000D7009091D80064E870E04AE050E017D19F
:1003B00084E890E074DF8EE890E07DDFC801B7014B
:1003C00044E850E02AE030E0E7D084E890E067DFDE
:1003D00083E890E070DFC801B70129E330E040E036
:1003E00050E09FD07B018C01C80120E137E240E062
:1003F00050E0B0D0DA01C90164E870E04AE050E0B2
:10040000EED084E890E04BDF8EE23EDFB701C8011A
:1004100024E630E040E050E09DD0CA01B90124E676
:1004200030E040E050E096D0162F6A3010F480E3C0
:100430002BDF812F90E064E870E04AE050E0CFD0FD
:1004400084E890E02CDF80919400823019F48CE7EE
:1004500090E007C0813019F485E790E002C08EE695
:1004600090E029DFDE011196E0E6F0E084E1019002
:100470000D928150E1F786E690E01DDFCE010196F6
:100480000EDF8AE001DF64960FB6F894DEBF0FBE80
:10049000CDBFCF91DF911F910F91FF90EF90089505
:1004A00012B883E389B988E18AB983E490E003DF75
:1004B00086E290E000DF84E187BB20E421BB939AD1
:1004C00085B78A6085BF8BB7806C8BBF82E480BFA5
:1004D00013BE8CE08EBD82E19AE79BBD8ABD29BF29
:1004E000789485B78F7A85BF85B7806285BF8895F8
:1004F00085B78F7D85BFEFDE0BDFEDDEF2CF5527B1
:10050000002480FF02C0060E571F660F771F61157B
:10051000710521F096958795009799F7952F802D75
:100520000895FF27EE27BB27AA2760FF04C0A20F6C
:10053000B31FE41FF51F220F331F441F551F96954D
:1005400087957795679589F70097760771F7CF01BB
:10055000BD010895A1E21A2EAA1BBB1BFD010DC00F
:10056000AA1FBB1FEE1FFF1FA217B307E407F50763
:1005700020F0A21BB30BE40BF50B661F771F881F3F
:10058000991F1A9469F760957095809590959B01D5
:10059000AC01BD01CF010895FA01CF93FF93EF9312
:1005A0002230C4F02532B4F4C22F2C2F3327442735
:1005B0005527FF93EF93CEDFEF91FF91605D6A3394
:1005C0000CF0695D6193B901CA01605070408040D0
:1005D000904059F710828F919F91CF9114C0FB01E9
:1005E0009F0142306CF045325CF4642F77271BD0BA
:1005F000805D8A330CF0895D8193CB010097A9F768
:100600001082C90100C0DC01FC01672F71917723C2
:10061000E1F7329704C07C916D9370836291AE17BD
:10062000BF07C8F30895AA1BBB1B51E107C0AA1F4F
:10063000BB1FA617B70710F0A61BB70B881F991F83
:100640005A95A9F780959095BC01CD010895F8942D
:02065000FFCFDA
:10065200343931362E34352C204E2C203132333180
:10066200312E31322C20572C203232353434342C76
:040672002041000023
:00000001FF
