:1000000049C057C07FC054C09AC052C051C050C0F0
:100010004FC04EC04DC04CC04BC04AC049C048C084
:1000200047C046C045C0687474703A2F2F6D696729
:100030006874796F686D2E636F6D2F67656967658A
:10004000720A006D69676874796F686D2E636F6DF1
:100050002047656967657220436F756E746572200D
:10006000312E30300A002C20534C4F57002C2046A4
:10007000415354002C20494E5354002C2075537684
:100080002F68722C20002C2043504D2C2000435010
:10009000532C200011241FBECFEDCDBF10E0A0E6F1
:1000A000B0E001C01D92A63BB107E1F7CED1A4C2DA
:1000B000A7CF1F920F920FB60F9211242F938F93F9
:1000C0009F938091B0009091B1008F5F9F4F49F056
:1000D0008091B0009091B10001969093B10080930F
:1000E000B000969A88EC90E00197F1F7969881E03D
:1000F00080936C009F918F912F910F900FBE0F9066
:100100001F9018951F920F920FB60F9211248F9384
:100110009F9380E593EC0197F1F7839906C0809156
:10012000700091E08927809370008AB780688ABF49
:100130009F918F910F900FBE0F901F9018951F9257
:100140000F920FB60F9211242F933F935F936F93EB
:100150007F938F939F93EF93FF9331E03093AF00A2
:10016000809160008F5F809360008091B0009091DB
:10017000B1009093B5008093B4008091B20090914B
:10018000B300E091AE00F0E0EE58FF4F2081821BFB
:1001900091099093B3008093B2008091B000909148
:1001A000B1008F3F910549F040F08FEF90E09093C0
:1001B000B1008093B00030936F002091B200309175
:1001C000B3008091B0009091B100820F931F909383
:1001D000B3008093B200E091AE00F0E08091B000F7
:1001E0009091B100EE58FF4F808310926E001092F4
:1001F0006D0030E0E091AE00E31BE7FDE45C809130
:100200006D0090916E00FF27E7FDF095EE58FF4FCF
:100210002081820F911D90936E0080936D003F5F4F
:10022000353041F780916D0090916E006CE070E088
:100230003BD190936E0080936D008091AE008F5FF4
:100240008093AE008091AE008C3310F01092AE001F
:100250001092B1001092B000FF91EF919F918F9199
:100260007F916F915F913F912F910F900FBE0F90F3
:100270001F9018951F93182F8A3011F48DE0FADF24
:100280005D9BFECF1CB91F910895CF93DF93EC01C6
:1002900002C0F0DF219688818823D9F7DF91CF91C2
:1002A0000895CF93DF93EC0104C02196F901849166
:1002B000E1DF9E01FE0184918823B9F7DF91CF91A0
:1002C000089580916C008823C1F010926C00C49A4C
:1002D00080917000882341F480B7806480BF83B729
:1002E000826083BF80EA86BF80E29EE40197F1F7D7
:1002F000C49813BE80B78F7B80BF0895EF92FF92A2
:100300000F931F9380916000833009F099C0109281
:10031000600080916F00882399F06091B400709123
:10032000B50080E090E02CE330E040E050E0CED03B
:100330007B018C0182E08093710010926F0018C0E5
:1003400080916D0090916E00895E934040F081E055
:100350008093710080916D0090916E0006C01092A4
:1003600071008091B2009091B3007C0100E010E038
:100370008EE890E096DF8091B4009091B50061E640
:1003800070E04AE050E000D181E690E07EDF86E850
:1003900090E087DFC801B70141E650E02AE030E095
:1003A000D0D081E690E071DF8BE790E07ADFC80182
:1003B000B70129E330E040E050E088D07B018C01B8
:1003C000C80120E137E240E050E099D0DA01C901EC
:1003D00061E670E04AE050E0D7D081E690E055DF7A
:1003E0008EE248DFB701C80124E630E040E050E08B
:1003F00086D0CA01B90124E630E040E050E07FD069
:10040000162F6A3010F480E335DF812F90E061E62B
:1004100070E04AE050E0B8D081E690E036DF8091AD
:100420007100823019F484E790E007C0813019F43C
:100430008DE690E002C086E690E033DF8AE01ADFC6
:100440001F910F91FF90EF90089512B883E389B93F
:1004500088E18AB983E490E024DF86E290E021DF3E
:1004600084E187BB20E421BB939A85B78A6085BF6E
:100470008BB7806C8BBF82E480BF13BE8CE08EBDD7
:1004800082E19AE79BBD8ABD29BF789485B78F7AB0
:1004900085BF85B7806285BF889585B78F7D85BF0D
:1004A00010DF2CDF0EDFF2CF5527002480FF02C0C3
:1004B000060E571F660F771F6115710521F096957F
:1004C0008795009799F7952F802D0895FF27EE27A0
:1004D000BB27AA2760FF04C0A20FB31FE41FF51FAC
:1004E000220F331F441F551F969587957795679563
:1004F00089F70097760771F7CF01BD010895A1E252
:100500001A2EAA1BBB1BFD010DC0AA1FBB1FEE1F8D
:10051000FF1FA217B307E407F50720F0A21BB30BD8
:10052000E40BF50B661F771F881F991F1A9469F754
:1005300060957095809590959B01AC01BD01CF01B0
:100540000895FA01CF93FF93EF932230C4F0253240
:10055000B4F4C22F2C2F332744275527FF93EF9352
:10056000CEDFEF91FF91605D6A330CF0695D6193BE
:10057000B901CA01605070408040904059F7108224
:100580008F919F91CF9114C0FB019F0142306CF07D
:1005900045325CF4642F77271BD0805D8A330CF0E2
:1005A000895D8193CB010097A9F71082C90100C032
:1005B000DC01FC01672F71917723E1F7329704C0CA
:1005C0007C916D9370836291AE17BF07C8F3089555
:1005D000AA1BBB1B51E107C0AA1FBB1FA617B70769
:1005E00010F0A61BB70B881F991F5A95A9F7809585
:0C05F0009095BC01CD010895F894FFCF58
:00000001FF
