:100000004DC066C08EC063C0A9C061C060C05FC083
:100010005EC05DC05CC05BC05AC059C058C057C00C
:1000200056C055C054C0687474703A2F2F6D6967FC
:100030006874796F686D2E636F6D2F67656967658A
:10004000720A006D69676874796F686D2E636F6DF1
:100050002047656967657220436F756E746572200D
:10006000312E30300A002C204C6F6E3A20002C20AC
:10007000534C4F57002C2046415354002C20494EDE
:100080005354002C207553762F68722C20002C209E
:1000900043504D2C20004350532C200011241FBEF0
:1000A000CFEDCDBF10E0A0E6B0E0E6E6F6E002C09E
:1000B00005900D92A43CB107D9F711E0A4ECB0E093
:1000C00001C01D92A931B107E1F7F4D1CAC298CF9E
:1000D0001F920F920FB60F9211242F938F939F931D
:1000E00080911301909114018F5F9F4F49F080918F
:1000F00013019091140101969093140180931301C0
:10010000969A88EC90E00197F1F7969881E08093B9
:10011000CF009F918F912F910F900FBE0F901F9046
:1001200018951F920F920FB60F9211248F939F93E1
:1001300080E593EC0197F1F7839906C08091D30095
:1001400091E089278093D3008AB780688ABF9F9106
:100150008F910F900FBE0F901F9018951F920F92C6
:100160000FB60F9211242F933F935F936F937F935A
:100170008F939F93EF93FF9331E03093120180911F
:1001800013019091140190931801809317018091AD
:10019000150190911601E0911101F0E0EB52FF4F33
:1001A0002081821B91099093160180931501809103
:1001B0001301909114018F3F910549F040F08FEFAA
:1001C00090E090931401809313013093D20020911A
:1001D0001501309116018091130190911401820F45
:1001E000931F9093160180931501E0911101F0E0A7
:1001F0008091130190911401EB52FF4F8083109274
:10020000D1001092D00030E0E0911101E31BE7FD36
:10021000E45C8091D0009091D100FF27E7FDF0953C
:10022000EB52FF4F2081820F911D9093D10080935C
:10023000D0003F5F353041F78091D0009091D100E0
:100240006CE070E066D19093D1008093D0008091F3
:1002500011018F5F80931101809111018C3310F097
:10026000109211011092140110921301FF91EF915D
:100270009F918F917F916F915F913F912F910F90FF
:100280000FBE0F901F9018951F93182F8A3011F4EE
:100290008DE0FADF5D9BFECF1CB91F910895CF93CF
:1002A000DF93EC0102C0F0DF219688818823D9F723
:1002B000DF91CF910895CF93DF93EC0104C0219695
:1002C000F9018491E1DF9E01FE0184918823B9F751
:1002D000DF91CF9108958091CF008823C1F01092D3
:1002E000CF00C49A8091D300882341F480B7806402
:1002F00080BF83B7826083BF80EA86BF80E29EE4CE
:100300000197F1F7C49813BE80B78F7B80BF089523
:10031000EF92FF920F931F93DF93CF93CDB7DEB78A
:10032000C456D0400FB6F894DEBF0FBECDBF80914B
:100330001201882309F4B0C0109212018091D200FA
:10034000882399F0609117017091180180E090E086
:100350002CE330E040E050E0EED07B018C0182E005
:100360008093D4001092D20018C08091D000909158
:10037000D100895E934040F081E08093D400809169
:10038000D0009091D10006C01092D4008091150148
:10039000909116017C0100E010E086E990E08BDF8F
:1003A000809117019091180164EC70E04AE050E0F0
:1003B00020D184EC90E073DF8EE890E07CDFC80110
:1003C000B70144EC50E02AE030E0F0D084EC90E05B
:1003D00066DF83E890E06FDFC801B70129E330E012
:1003E00040E050E0A8D07B018C01C80120E137E259
:1003F00040E050E0B9D0DA01C90164EC70E04AE0B5
:1004000050E0F7D084EC90E04ADF8EE23DDFB701A8
:10041000C80124E630E040E050E0A6D0CA01B901AE
:1004200024E630E040E050E09FD0162F6A3010F410
:1004300080E32ADF812F90E064EC70E04AE050E036
:10044000D8D084EC90E02BDF8091D400823019F476
:100450008CE790E007C0813019F485E790E002C096
:100460008EE690E028DFDE011196E0E6F0E082E41F
:1004700001900D928150E1F782E2FE01ED5BFF4FAA
:10048000DF011D928A95E9F71F8186E690E013DF70
:10049000812FFADE8AE0F8DECC59DF4F0FB6F894F0
:1004A000DEBF0FBECDBFCF91DF911F910F91FF90A7
:1004B000EF90089512B883E389B988E18AB983E49B
:1004C00090E0F9DE86E290E0F6DE84E187BB20E48E
:1004D00021BB939A85B78A6085BF8BB7806C8BBF31
:1004E00082E480BF13BE8CE08EBD82E19AE79BBDA3
:1004F0008ABD29BF789485B78F7A85BF85B780621A
:1005000085BF889585B78F7D85BFE5DE01DFE3DE9A
:10051000F2CF5527002480FF02C0060E571F660F3A
:10052000771F6115710521F096958795009799F7CA
:10053000952F802D0895FF27EE27BB27AA2760FF60
:1005400004C0A20FB31FE41FF51F220F331F441F67
:10055000551F969587957795679589F70097760744
:1005600071F7CF01BD010895A1E21A2EAA1BBB1B92
:10057000FD010DC0AA1FBB1FEE1FFF1FA217B3076F
:10058000E407F50720F0A21BB30BE40BF50B661F85
:10059000771F881F991F1A9469F760957095809549
:1005A00090959B01AC01BD01CF010895FA01CF9355
:1005B000FF93EF932230C4F02532B4F4C22F2C2FD6
:1005C000332744275527FF93EF93CEDFEF91FF9119
:1005D000605D6A330CF0695D6193B901CA016050D6
:1005E00070408040904059F710828F919F91CF9139
:1005F00014C0FB019F0142306CF045325CF4642F63
:1006000077271BD0805D8A330CF0895D8193CB0105
:100610000097A9F71082C90100C0DC01FC01672F17
:1006200071917723E1F7329704C07C916D937083C9
:100630006291AE17BF07C8F30895AA1BBB1B51E117
:1006400007C0AA1FBB1FA617B70710F0A61BB70B42
:10065000881F991F5A95A9F780959095BC01CD01E7
:060660000895F894FFCF9D
:100666002447504747412C3132333531392C343801
:1006760030372E3033382C4E2C30313133312E304A
:1006860030302C452C312C30382C302E392C35344A
:10069600352E342C4D2C34362E392C4D2C2C2A3418
:1006A600370000000000000000000000000000000D
:1006B6000000000000000000000000000000000034
:0406C6000000000030
:00000001FF
